000391263394 Office Warehouse, Inc.     1803
103405392145ABADAM         EVANGELINE     F S17011202500000000000115362 
103400655120AGONIAS        RYAN JAY       V S17061301200000000000055374 
103355792248ALEJO          LOURDES        H S16053103200000000000073832 T
103409588735ALEJO          RODERICK       M S17022701450000000000066910 
100398883023ALMAQUER       EUGENIO        T S17062203100000000000143050 
103372279744ALVARADO       RHONA          C S16060102700000000000124592 
103328751944ATAMOSA        MYRNA          R S16042603100000000000143050 
103338928204AUGUIS         FERDINAND      C S16040903100000000000143050 
103378672138BALGAME        JANICE         L S16042603100000000000143050 
103340021212BALLESTEROS    JOEL           D S17092903200000000000147664 
103424615528BAYARONG       DARREN         . S16082301300000000000059988 
103406356070BEJERANO       ROSE ANN       B S17081101400000000000064604 
103332410637BERNARDO       MARYLYN        C S17121103200000000000147664 
103410192026BOLANOS        RYAN           R S17050301400000000000064604 
103364254683BONAVENTE      ADRIAN         M S17100302800000000000129206 
103377609429BONIFACIO      ERIC           S S17090603200000000000147664 
103327355244BRISTOL JR.    TOMAS          B S17052403200000000000147664 
103390197808BULTRON        JOANNA         G S17072702600000000000119978 
100722564769CASUYON        APRIL          N S17031501400000000000064604 
103389791095CODILLA        KAREEN         L S17093002500000000000115362 
100228035608DELA CRUZ      JOWARD         R S17101101350000000000062296 
103389522057ESPADILLA      RANDY          C S11020101900000000000105000 
103385372146ESPINAS        LEO            M S16060802700000000000124592 
103332020519ESPINO         DIOSDADO       . S17090603200000000000147664 
100119139464FELIPE         ANNA KATRINA   I S17051802700000000000124592 
103387738283FLORENOSOS     ROLAND         R S17052402500000000000115362 
103368386298FONTILLAS      ELOISA         L S17102503000000000000138436 
103413022834GALANG         ANNA CARMELLA  R S17110901400000000000064604 
103347227608GALDO          SHARON         B S17020802700000000000124592 
103440966950GASATAYA       RANDY CRIS     F S17062301250000000000057682 
103373963486GERON          FRANCIS        S S06122801000000000000021875 T
103376532270IBO            MARIBETH       P S15120503200000000000073832 T
103420655579LADEZA         EMMAR          M S16071501350000000000062296 
103390333471LAGAMO         ARMIE          O S17101002700000000000124592 
103385285330LARUSCAIN      STEPHEN JOHN   S S16101202800000000000-64603 T
103349173608LOPEZ          ENRIQUE        N S17100402900000000000133820 
103392794267LORIENTE       MARY GRACE     N S16090602700000000000124592 
103361388507LUCAS          MARY JOY       A S17122703200000000000147664 
103431487118MARQUESES      CRISPIN        C S17072001450000000000066910 
103363493555MARQUEZ        CHERRY LOU     T S17121103200000000000147664 
100120195701MC GOWAN       RYAN           M S16061501400000000000064604 
103319784302MENDOZA        GIRLIE         P S17100403200000000000147664 
103358645826MOLDON         ELIZABETH      P S17040402700000000000124592 
103375462846NACARIO        RONNIE         C S17042703100000000000143050 
103353496902NAVARRO        DINO NINO      S S17092603200000000000147664 
103357341529NAVARRO        MARIA VICTORIA F S17092303000000000000138436 
103340966704NICOLAS JR.    EDUARDO        C S15071503100000000000143050 
103389073700OASNON         RITCHELL       E S17022201300000000000059988 
103403162571OLIVA          JONAS          C S17111709500000000000043838 
103381041455PARANE         JERALDINE      N S17012603100000000000143050 
100512016061PEÑAREDONDO    RUSTOM         S S17100401450000000000066910 
103420290044QUERUBIN       JENNYLYN       B S16111501300000000000059988 
103332658774RAMOS          MARIA VERONICA D S17071502200000000000101520 
103380190705RAMOS          RIONELL        G S17042703200000000000147664 
103361161180REGENCIA       LEA            L S17060702600000000000119978 
100725548915REGONIEL       WENELYN        C S16120601450000000000066910 
103352216251RUBINA         MARIA LALAINE  T S17120103200000000000147664 
103371875547SUAPERO        NINO           C S16102802300000000000000000 T
103373884112SUPNAD         DEXTER         E S17050903200000000000147664 
103401013156TORRES         RENALYN        A S15102301200000000000055374 
103353547330VALLE          ROBERTO        B S16060102600000000000119978 
103387861846VELOSO JR.     BENJAMIN       V S17100302700000000000124592 
100718089779VOLUNTATE      ANALIE         C S16120202600000000000119978 
103318015823ZAUSA          NADY           R S16111603200000000000147664 
99006400000000006884827
