000391263394 Office Warehouse, Inc.     1511
103386227436ALIMODIAN      KRISTINE       B S15012002500000000000115362 
100398883023ALMAQUER       EUGENIO        T S15051202700000000000124592 
100397457544ANTONIO        GARNER         D S15012003000000000000064603 
103378672138BALGAME        JANICE         L S15012003000000000000129206 
103340021212BALLESTEROS    JOEL           D S15022503000000000000138436 
103364254683BONAVENTE      ADRIAN         M S15021702300000000000106134 
103377609429BONIFACIO      ERIC           S S15012001200000000000031148 T
103377609429BONIFACIO      ERIC           S S15060403100000000000071525 
103327355244BRISTOL JR.    TOMAS          B S15012003000000000000066910 
103390197808BULTRON        JOANNA         G S15081202200000000000101520 
103375204473CAJANDOC       ALMA           O S15052801150000000000053068 
103354060599CANDO JR.      EFREN          C S15012003000000000000066910 T
103389791095CODILLA        KAREEN         L S15030901000000000000046146 
103316968493DE GUZMAN      ORLY           B S15012001000000000000024062 
103388948153DIZON          ROCHELLE       D S13100704500000000000020766 
103385372146ESPINAS        LEO            M S13073101000000000000046146 
103332020519ESPINO         DIOSDADO       . S15032703000000000000138436 
103387738283FLORENOSOS     ROLAND         R S10082408000000000000035000 
103368386298FONTILLAS      ELOISA         L S14032501300000000000059988 
103347227608GALDO          SHARON         B S15012001000000000000048452 
103373963486GERON          FRANCIS        S S06122801000000000000021875 
103341901483GONZALES       RICHARD        D S15012001700000000000083060 
103382326991JAMITO         MARY JANE      B S15022501150000000000053068 
103390333471LAGAMO         ARMIE          O S15070802500000000000115362 
103385285330LARUSCAIN      STEPHEN JOHN   S S15060502400000000000110748 
103349173608LOPEZ          ENRIQUE        N S15012002300000000000106134 
103407470861LORESCO        ELMER          M S15032701150000000000053068 
103392794267LORIENTE       MARY GRACE     N S12092705500000000000024062 
100412897102MACALALAD      LEO            T S15012001000000000000022968 
100379925324MANABAT        GRACEALLA      C S15012003100000000000138434 
103301595567MARQUEZ        CRISTAN        A S15012001300000000000057500 
103353496902NAVARRO        DINO NINO      S S15061703200000000000073832 
103353496902NAVARRO        DINO NINO      S S15012003100000000000069217 
103357341529NAVARRO        MARIA VICTORIA F S15042903100000000000143050 
103340966704NICOLAS JR.    EDUARDO        C S15012003000000000000066910 
103358643996ODTOHAN        JOVILYN        V S13102201600000000000073832 
103381041455PARANE         JERALDINE      N S15072803000000000000138436 
103420290044QUERUBIN       JENNYLYN       B S14122001107500000000046146 
103380190705RAMOS          RIONELL        G S15012003000000000000133820 T
103361161180REGENCIA       LEA            L S15061602300000000000053067 
100613728180RETANA         FLORANTE       L S15012003000000000000130306 
103379846060REYES          ABBA           R S14122008306000000000034610 
103352816868REYES          VINCENT CONRAD M S15012002400000000000105000 
100218606432RIVERA         MARY GRACE     D S15051902300000000000212266 
103368163576ROSELADA       ROMEL          D S15051102300000000000106134 
103396256468SANLITAN       PRINCESS       R S15031901050000000000048452 
103401905976SUPETRAN JR.   JOSE           T S15042101050000000000048452 
103373884112SUPNAD         DEXTER         E S15051503100000000000143050 
103385289381VALENCIA       ROSALINDA      I S15070901150000000000053068 
103359121802VALERIO        WILLIAM        V S15061603100000000000071525 
103387861846VELOSO JR.     BENJAMIN       V S15012008500000000000041530 
100718089779VOLUNTATE      ANALIE         C S14041405500000000000050760 
103350235302ZALDIVAR       LEAH           T S14022602200000000000101520 
99005300000000004219672
