000391263394 Office Warehouse, Inc.     1812
103405392145ABADAM         EVANGELINE     F S17011202500000000000115362 
100212033454ADIOVA         MICHAEL        N S18050703000000000000138436 
103355792248ALEJO          LOURDES        H S18022403200000000000147664 
103409588735ALEJO          RODERICK       M S17022701450000000000066910 
100398883023ALMAQUER       EUGENIO        T S17062203100000000000143050 
100413606855ASINAS JR      OMAR           C S18090802800000000000129206 
103338928204AUGUIS         FERDINAND      C S18032303200000000000147664 
103378672138BALGAME        JANICE         L S18082503200000000000147664 
103340021212BALLESTEROS    JOEL           D S17092903200000000000147664 
103332410637BERNARDO       MARYLYN        C S17121103200000000000147664 
103410192026BOLANOS        RYAN           R S17050301400000000000064604 
103364254683BONAVENTE      ADRIAN         M S17100302800000000000129206 
103377609429BONIFACIO      ERIC           S S17090603200000000000147664 
103327355244BRISTOL JR.    TOMAS          B S17052403200000000000147664 
103448100530BUGNA JR       BIENVENIDO     E S18021601100000000000058000 
103390197808BULTRON        JOANNA         G S18101902700000000000124592 
103424386242CAMBRONERO     JOSE           P S18041601200000000000055374 
100722564769CASUYON        APRIL          N S17031501400000000000064604 
103389791095CODILLA        KAREEN         L S17093002500000000000115362 
103424781708CRUZ           CHRISTIAN      S S18042002500000000000115362 
103442145423DACILLO        JAYSON         B S18040601000000000000046146 
103419787458DELA COSTA     ROMALYN        C S18031301200000000000055374 
100228035608DELA CRUZ      JOWARD         R S17101101350000000000062296 
100421218523EDOBALA        CELMAR         G S17101301100000000000050760 
103385372146ESPINAS        LEO            M S18050702600000000000119978 
103332020519ESPINO         DIOSDADO       . S17090603200000000000147664 
100119139464FELIPE         ANNA KATRINA   I S17051802700000000000124592 
103387738283FLORENOSOS     ROLAND         R S17052402500000000000115362 
103368386298FONTILLAS      ELOISA         L S17102503000000000000069218 
103403701644GALAM JR.      JOSEPH         C S18073101000000000000046100 
103413022834GALANG         ANNA CARMELLA  R S17110901400000000000064604 
103347227608GALDO          SHARON         B S17020802700000000000124592 
103373963486GERON          FRANCIS        S S18012503100000000000143050 
103364865001HERNANDEZ      VANESSA        C S18052801350000000000062296 
103376532270IBO            MARIBETH       P S18030502900000000000133820 
103440772131ILAO           RENAFE JOY     G S18042101400000000000100000 
103390333471LAGAMO         ARMIE          O S17101002700000000000124592 
103426112773LALONGA        HASSAN-AR HASSIM S18011802700000000000124592 
103385285330LARUSCAIN      STEPHEN JOHN   S S18030502900000000000133820 
103349173608LOPEZ          ENRIQUE        N S17100402900000000000133820 
103403481362LOPEZ          IVANHOE        E S18011703000000000000138436 
103392794267LORIENTE       MARY GRACE     N S18020702800000000000129206 
103361388507LUCAS          MARY JOY       A S17122703200000000000147664 
103431487118MARQUESES      CRISPIN        C S18090801450000000000066910 
103363493555MARQUEZ        CHERRY LOU     T S17121103200000000000147664 
100120195701MC GOWAN       RYAN           M S18020701350000000000062296 
103319784302MENDOZA        GIRLIE         P S17100403200000000000147664 
103358645826MOLDON         ELIZABETH      P S17040402700000000000124592 
103375462846NACARIO        RONNIE         C S17042703100000000000143050 
103353496902NAVARRO        DINO NINO      S S17092603200000000000147664 
103357341529NAVARRO        MARIA VICTORIA F S17092303000000000000138436 
103389073700OASNON         RITCHELL       E S17022201300000000000059988 
103403162571OLIVA          JONAS          C S17111709500000000000043838 
103406356070ORIAS          ROSE ANN       B S17081101400000000000064604 
103381041455PARANE         JERALDINE      N S17012603100000000000143050 
103385426885PERMANO        JOSEPH         G 118090801600000000000073832 
103423703965PILONEO        JESSICA        C S18081502500000000000115362 
103420290044QUERUBIN       JENNYLYN       B S16111501300000000000059988 
103332658774RAMOS          MARIA VERONICA D S17071502200000000000101520 
103361161180REGENCIA       LEA            L S17060702600000000000119978 
100613728180RETANA         FLORANTE       L S18061903200000000000147664 
103379846060REYES          ABBA           R S16101402500000000000115362 
103352216251RUBINA         MARIA LALAINE  T S17120103200000000000147664 
103433877166RUBIO          DINNA JOY      C S18091201350000000000124592 
103396256468SANLITAN       PRINCESS       R S18012502700000000000124592 
103371875547SUAPERO        NINO           C S18011602800000000000129206 
103373884112SUPNAD         DEXTER         E S17050903200000000000147664 
103379853383TONDO          MARICEL        D S18022403200000000000147664 
103401013156TORRES         RENALYN        A S15102301200000000000055374 
103353547330VALLE          ROBERTO        B S18060202700000000000124590 
103370439450VICIO          MARY JANE      M S18090503200000000000147664 
100718089779VOLUNTATE      ANALIE         C S16120202600000000000119978 
103350235302ZALDIVAR       LEAH           T S17082902600000000000119978 
103318015823ZAUSA          NADY           R S18092003200000000000147610 
99007400000000008311736
