000391263394 Office Warehouse, Inc.     1701
103405392145ABADAM         EVANGELINE     F S15022301100000000000050760 
103355792248ALEJO          LOURDES        H S16053103200000000000147664 
100398883023ALMAQUER       EUGENIO        T S15051202700000000000124592 
103372279744ALVARADO       RHONA          C S16060102700000000000124592 
100397457544ANTONIO        GARNER         D S15112403100000000000143050 
103328751944ATAMOSA        MYRNA          R S16042603100000000000143050 
103338928204AUGUIS         FERDINAND      C S16040903100000000000143050 
103378672138BALGAME        JANICE         L S16042603100000000000143050 
103340021212BALLESTEROS    JOEL           D S16072103200000000000147664 
103424615528BAYARONG       DARREN         . S16082301300000000000059988 
103406356070BEJERANO       ROSE ANN       B S16052001350000000000124592 
103332410637BERNARDO       MARYLYN        C S14040103100000000000150000 
103410192026BOLANOS        RYAN           R S15112309500000000000043838 
103364254683BONAVENTE      ADRIAN         M S16060802500000000000115362 
103377609429BONIFACIO      ERIC           S S15060403100000000000143050 
103327355244BRISTOL JR.    TOMAS          B S15102903100000000000143050 
103390197808BULTRON        JOANNA         G S15081202200000000000101520 
103423780988CABARRUS       JEANNA         D S16053101050000000000096904 
103354060599CANDO JR.      EFREN          C S15091003100000000000143050 
100421374917CHUA           FRANCIS EDWARD D S16061501300000000000059988 
103389791095CODILLA        KAREEN         L S16071501250000000000057682 
103316968493DE GUZMAN      ORLY           B S15112403100000000000143050 
100228035608DELA CRUZ      JOWARD         R S16052301150000000000083068 
100725689191DELOS SANTOS   APRIL          G S16030701250000000000057682 
103389522057ESPADILLA      RANDY          C S11020101900000000000105000 
103385372146ESPINAS        LEO            M S16060802700000000000124592 
103332020519ESPINO         DIOSDADO       . S15032703000000000000138436 
103387738283FLORENOSOS     ROLAND         R S10082408000000000000035000 
103368386298FONTILLAS      ELOISA         L S16031702600000000000119978 
103373963486GERON          FRANCIS        S S06122801000000000000043750 
103408401680GUEVARRA       JESUS SOFIO    Z S15020902400000000000110748 
103376532270IBO            MARIBETH       P S15120503200000000000147664 
103389361496LACASANDILE    MELANIE        L S15111602500000000000115362 
103420655579LADEZA         EMMAR          M S16071501350000000000062296 
103426112773LALONGA        HASSAN-AR HASSIM S15110401200000000000055374 
103385285330LARUSCAIN      STEPHEN JOHN   S S15060502400000000000055374 
103349173608LOPEZ          ENRIQUE        N S16051902900000000000133820 
103403481362LOPEZ          IVANHOE        E S15110301050000000000048452 
103392794267LORIENTE       MARY GRACE     N S16090602700000000000124592 
103361388507LUCAS          MARY JOY       A S14103002500000000000115362 
100628513597MANANGO        ARIEL          V S16030901250000000000057682 
103431487118MARQUESES      CRISPIN        C S15110501200000000000055374 
103363493555MARQUEZ        CHERRY LOU     T S15102903100000000000143050 
100120195701MC GOWAN       RYAN           M S16061501400000000000064604 
103432420226MERCADO        NERIZZA CRYSTALN S16080901500000000000069218 
103358645826MOLDON         ELIZABETH      P S15102802500000000000115362 
103375462846NACARIO        RONNIE         C S15102901150000000000053068 
103353496902NAVARRO        DINO NINO      S S15061703200000000000073832 
103357341529NAVARRO        MARIA VICTORIA F S15042903100000000000143050 
103340966704NICOLAS JR.    EDUARDO        C S15071503100000000000143050 
103358643996ODTOHAN        JOVILYN        V S13102201600000000000073832 
100724702914PALMES         ERWIN          P S16110401350000000000062296 
103381041455PARANE         JERALDINE      N S15072803000000000000138436 
103420290044QUERUBIN       JENNYLYN       B S16111501300000000000059988 
103380190705RAMOS          RIONELL        G S15102103100000000000143050 
103361161180REGENCIA       LEA            L S15061602300000000000106134 
103379846060REYES          ABBA           R S14122008306000000000034610 
103368163576ROSELADA       ROMEL          D S15051102300000000000106134 
103396256468SANLITAN       PRINCESS       R S15031901050000000000048452 
103371875547SUAPERO        NINO           C S16102802300000000000106134 
103371875547SUAPERO        NINO           C S14030401250000000000057682 
103401905976SUPETRAN JR.   JOSE           T S15042101050000000000048452 
103373884112SUPNAD         DEXTER         E S15051503100000000000143050 
103393114888TECLING        MA. IRMA       V S15091502500000000000115362 
103385289381VALENCIA       ROSALINDA      I S15070901150000000000053068 
103359121802VALERIO        WILLIAM        V S15061603100000000000143050 
103353547330VALLE          ROBERTO        B S16060102600000000000119978 
103387861846VELOSO JR.     BENJAMIN       V S16081702800000000000129206 
103350235302ZALDIVAR       LEAH           T S14022602200000000000101520 
103318015823ZAUSA          NADY           R S16111603200000000000147664 
99007000000000007082484
