000391263394 Office Warehouse, Inc.     1709
103405392145ABADAM         EVANGELINE     F S17011202500000000000115362 
103400655120AGONIAS        RYAN JAY       V S17061301200000000000055374 
103355792248ALEJO          LOURDES        H S16053103200000000000147664 
103409588735ALEJO          RODERICK       M S17022701450000000000066910 
100398883023ALMAQUER       EUGENIO        T S17062203100000000000143050 
103372279744ALVARADO       RHONA          C S16060102700000000000124592 
100397457544ANTONIO        GARNER         D S15112403100000000000143050 
103328751944ATAMOSA        MYRNA          R S16042603100000000000143050 
103338928204AUGUIS         FERDINAND      C S16040903100000000000143050 
103378672138BALGAME        JANICE         L S16042603100000000000143050 
103340021212BALLESTEROS    JOEL           D S16072103200000000000147664 
103424615528BAYARONG       DARREN         . S16082301300000000000059988 
103332410637BERNARDO       MARYLYN        C S14040103100000000000150000 
103410192026BOLANOS        RYAN           R S17050301400000000000064604 
103364254683BONAVENTE      ADRIAN         M S16060802500000000000115362 
103377609429BONIFACIO      ERIC           S S15060403100000000000071501 
103327355244BRISTOL JR.    TOMAS          B S17052403200000000000147664 
103390197808BULTRON        JOANNA         G S17072702600000000000119978 
103423780988CABARRUS       JEANNA         D S16053101050000000000096904 
103354060599CANDO JR.      EFREN          C S15091003100000000000143050 
100722564769CASUYON        APRIL          N S17031501400000000000064604 
103389791095CODILLA        KAREEN         L S16071501250000000000057682 
103316968493DE GUZMAN      ORLY           B S15112403100000000000143050 
100228035608DELA CRUZ      JOWARD         R S16052301150000000000053068 
103389522057ESPADILLA      RANDY          C S11020101900000000000105000 
103385372146ESPINAS        LEO            M S16060802700000000000124592 
100119139464FELIPE         ANNA KATRINA   I S17051802700000000000124592 
103387738283FLORENOSOS     ROLAND         R S17052402500000000000115362 
103368386298FONTILLAS      ELOISA         L S16031702600000000000119978 
103347227608GALDO          SHARON         B S17020802700000000000124592 
103440966950GASATAYA       RANDY CRIS     F S17062301250000000000057682 
103373963486GERON          FRANCIS        S S06122801000000000000043750 
103376532270IBO            MARIBETH       P S15120503200000000000147664 
103389361496LACASANDILE    MELANIE        L S15111602500000000000115362 
103420655579LADEZA         EMMAR          M S16071501350000000000062296 
103390333471LAGAMO         ARMIE          O S15070802500000000000057681 
103426112773LALONGA        HASSAN-AR HASSIM S15110401200000000000055374 
103385285330LARUSCAIN      STEPHEN JOHN   S S16101202800000000000129206 
103349173608LOPEZ          ENRIQUE        N S16051902900000000000133820 
103403481362LOPEZ          IVANHOE        E S15110301050000000000048452 
103392794267LORIENTE       MARY GRACE     N S16090602700000000000062296 
103361388507LUCAS          MARY JOY       A S14103002500000000000115362 
103431487118MARQUESES      CRISPIN        C S17072001450000000000066910 
103431487118MARQUESES      CRISPIN        C S15110501200000000000055374 
103363493555MARQUEZ        CHERRY LOU     T S15102903100000000000143050 
100120195701MC GOWAN       RYAN           M S16061501400000000000064604 
103358645826MOLDON         ELIZABETH      P S17040402700000000000124592 
103375462846NACARIO        RONNIE         C S17042703100000000000143050 
103353496902NAVARRO        DINO NINO      S S15061703200000000000073832 
103340966704NICOLAS JR.    EDUARDO        C S15071503100000000000143050 
103389073700OASNON         RITCHELL       E S17022201300000000000059988 
100724702914PALMES         ERWIN          P S16110401350000000000062296 
103381041455PARANE         JERALDINE      N S17012603100000000000143050 
103381041455PARANE         JERALDINE      N S15072803000000000000138436 
103420290044QUERUBIN       JENNYLYN       B S16111501300000000000059988 
103332658774RAMOS          MARIA VERONICA D S17071502200000000000101520 
103380190705RAMOS          RIONELL        G S17042703200000000000147664 
103361161180REGENCIA       LEA            L S17060702600000000000119978 
100725548915REGONIEL       WENELYN        C S16120601450000000000066910 
103371875547SUAPERO        NINO           C S16102802300000000000106134 
103371875547SUAPERO        NINO           C S14030401250000000000057682 
103393114888TECLING        MA. IRMA       V S15091502500000000000115362 
103401013156TORRES         RENALYN        A S15102301200000000000055374 
103359121802VALERIO        WILLIAM        V S15061603100000000000143050 
103353547330VALLE          ROBERTO        B S16060102600000000000119978 
103387861846VELOSO JR.     BENJAMIN       V S16081702800000000000129206 
100718089779VOLUNTATE      ANALIE         C S16120202600000000000119978 
103318015823ZAUSA          NADY           R S16111603200000000000147664 
99006800000000007112052
