000391263394 Office Warehouse, Inc.     1505
103355792248ALEJO          LOURDES        H S15012002100000000000048452 
103386227436ALIMODIAN      KRISTINE       B S15012002500000000000115362 
100398883023ALMAQUER       EUGENIO        T S15012002400000000000053066 
100397457544ANTONIO        GARNER         D S15012003000000000000129206 
103378672138BALGAME        JANICE         L S15012003000000000000323015 
103340021212BALLESTEROS    JOEL           D S15022503000000000000138436 
103364254683BONAVENTE      ADRIAN         M S15021702300000000000106134 
103377609429BONIFACIO      ERIC           S S15012001200000000000062296 
103327355244BRISTOL        TOMAS          B S15012003000000000000133820 
103390197808BULTRON        JOANNA         G S15012008000000000000050000 
103354060599CANDO JR.      EFREN          C S15012003000000000000133820 
103389791095CODILLA        KAREEN         L S15030901000000000000046146 
103316968493DE GUZMAN      ORLY           B S15012001000000000000048124 
103385372146ESPINAS        LEO            M S13073101000000000000046146 
103368386298FONTILLAS      ELOISA         L S14032501300000000000059988 
103347227608GALDO          SHARON         B S15012001000000000000048452 
103341901483GONZALES       RICHARD        D S15012001700000000000083060 
103382326991JAMITO         MARY JANE      B S15022501150000000000053068 
103390333471LAGAMO         ARMIE          O S15012007000000000000034608 
103349173608LOPEZ          ENRIQUE        N S15012002300000000000106134 
100412897102MACALALAD      LEO            T S15012001000000000000045936 
100379925324MANABAT        GRACEALLA      C S15012003100000000000138434 
103353496902NAVARRO        DINO NINO      S S15012003100000000000138434 
103340966704NICOLAS JR.    EDUARDO        C S15012003000000000000133820 
103420290044QUERUBIN       JENNYLYN       B S14122001107500000000046146 
103380190705RAMOS          RIONELL        G S15012003000000000000133820 
103361161180REGENCIA       LEA            L S15012008000000000000035000 
100613728180RETANA         FLORANTE       L S15012003000000000000130306 
103379846060REYES          ABBA           R S14122008306000000000034610 
103352816868REYES          VINCENT CONRAD M S15012002400000000000105000 
100218606432RIVERA         MARY GRACE     D S15012002300000000000101518 
103368163576ROSELADA       ROMEL          D S15012002100000000000096904 
103373884112SUPNAD         DEXTER         E S15012002300000000000105000 
103379853383TONDO          MARICEL        D S15012002100000000000046145 
103385289381VALENCIA       ROSALINDA      I S15012001100000000000050758 
103387861846VELOSO JR.     BENJAMIN       V S15012008500000000000041530 
99003600000000003202694
