000391263394 Office Warehouse, Inc.     2106
103405392145ABADAM         EVANGELINE     F S19021902900000000000133820 
103394731215ACHARON        CINDY          B 120061801500000000000066482 
103409588735ALEJO          RODERICK       M S19031103100000000000286100 
103422600276ANGUSTIA       MARY ROSE      B 120062401300000000000057618 
103422600276ANGUSTIA       MARY ROSE      B S19021102600000000000119978 
103437210651APINES         KRISHA ANNE    A 120070901800000000000079778 
103419377761ARANAS         LONELYN        C 120062201900000000000084210 
103378672138BALGAME        JANICE         L 120070402000000000000088642 
103428889729BASARTE        ALMA           P S19022101300000000000059988 
103425500742BAUTISTA       CLOYD MORGAN   H S19031202600000000000119978 
103424615528BAYARONG       DARREN         . 120062501400000000000062050 
103410192026BOLANOS        RYAN           R S19040402900000000000133820 
103442908932BOYO           RAYMUND        A 120062301600000000000070914 
103442908932BOYO           RAYMUND        A S19081301200000000000055374 
103456625612BRIONES        MARY GRACE     A 120071501700000000000075344 
103456625612BRIONES        MARY GRACE     A S20021001650000000000076140 
103327355244BRISTOL JR.    TOMAS          B S20021003800000000000175352 
103390197808BULTRON        JOANNA         G S20062203000000000000138436 
103354060599CANDO JR.      EFREN          C 120062701900000000000084210 
103354060599CANDO JR.      EFREN          C S19081403400000000000156894 
100722564769CASUYON        APRIL          N S19090303000000000000138436 
103389791095CODILLA        KAREEN         L S20061702900000000000066910 
103449478740CONDRILLON     NICOMEDES JR.  S 120063001400000000000062050 
103424781708CRUZ           CHRISTIAN      S 120062101500000000000066482 
103424781708CRUZ           CHRISTIAN      S S20061603000000000000138436 
103442145423DACILLO        JAYSON         B 120062601400000000000062050 
103442145423DACILLO        JAYSON         B S19090201350000000000062296 
103316968493DE GUZMAN      ORLY           B S19062803300000000000152278 
103419526091DE OCAMPO      CHESTER JOHN   B S19011602700000000000124592 
103435739901DEL ROSARIO    REYNAN         B 120072201200000000000053184 
103435739901DEL ROSARIO    REYNAN         B S19102501350000000000062296 
103419787458DELA COSTA     ROMALYN        C 120061701500000000000066482 
100238070116DIAZ           ABBY           V S19070401500000000000069218 
103405206639DUGOS          CRISTELYN      L S20070302700000000000124592 
100421218523EDOBALA        CELMAR         G 120090301400000000000062050 
103389522057ESPADILLA      RANDY          C 120073002000000000000088642 
103385372146ESPINAS        LEO            M S19122303000000000000138436 
103402596397FABI           MAY            N S19090903000000000000138436 
100512134121FERRARIZ       KEN BRYAN      G S19051601350000000000062296 
103387738283FLORENOSOS     ROLAND         R S19022102600000000000119978 
103413022834GALANG         ANNA CARMELLA  R 120062501400000000000200000 
100228962205GALLENDO       PERCIOUS       E 120081601400000000000062050 
100228962205GALLENDO       PERCIOUS       E S18073107642000000000047782 
100507007784GALVE          CRUZCHEL       T S20060803900000000000179964 
103408401680GUEVARRA       JESUS SOFIO    Z S17051602700000000000124592 
103376532270IBO            MARIBETH       P S21020903700000000000341472 
103453332762JARAPA         JANELLE LOISE  J 120070201400000000000062050 
103453332762JARAPA         JANELLE LOISE  J S19100901450000000000066910 
103425005739JARAPA         KRISTINE JOYCE B 120070101200000000000053186 
103390333471LAGAMO         ARMIE          O S20020303000000000000138436 
103441787387LANTO          REY MARK       J S17110901301000000000070000 
103385285330LARUSCAIN      STEPHEN JOHN   S S20062203100000000000143050 
103378391309LATAG          JAYJAY         L S19021203100000000000143050 
103349173608LOPEZ          ENRIQUE        N S19090902900000000000133820 
103403481362LOPEZ          IVANHOE        E S20030203000000000000069218 
103392794267LORIENTE       MARY GRACE     N S19051602900000000000133820 
103361388507LUCAS          MARY JOY       A S20021903200000000000147664 
103431487118MARQUESES      CRISPIN        C S20100202800000000000129206 
103363493555MARQUEZ        CHERRY LOU     T S20032004000000000000184590 
103432114862MENDOZA        GILBERT        D 120072501500000000000066482 
103432114862MENDOZA        GILBERT        D S20031302900000000000133820 
103319784302MENDOZA        GIRLIE         P S19070903400000000000156894 
103439408063MORTIZ         MANNY          U S18071909316000000000100000 
103375462846NACARIO        RONNIE         C 120080601700000000000075344 
103375462846NACARIO        RONNIE         C S19011803100000000000143050 
103353496902NAVARRO        DINO NINO      S S19041703200000000000147664 
103357341529NAVARRO        MARIA VICTORIA F S19071003300000000000152278 
103357341529NAVARRO        MARIA VICTORIA F 120091402000000000000088642 
103454358114NORONA         MARK JOSEPH    P S20091601400000000000064604 
103403162571OLIVA          JONAS          C 120090101500000000000066482 
103403162571OLIVA          JONAS          C S20012003000000000000138436 
103406356070ORIAS          ROSE ANN       B 120062201400000000000062050 
103406356070ORIAS          ROSE ANN       B S19030502700000000000124592 
103416627964OSITA          AILEN          S 120071501500000000000066482 
103416627964OSITA          AILEN          S S19092402900000000000133820 
103435835009PANCITO        ANABEL         D 120072701600000000000070914 
103435835009PANCITO        ANABEL         D S19041501550000000000071526 
103322404271PENILLA        ARNOLD         G 121011201800000000000083062 
103322404271PENILLA        ARNOLD         G S20120403500000000000161508 
103385426885PERMANO        JOSEPH         G S16120303200000000000147664 
103435851753PICULADOS      CALIXTO, JR.   B S18121301500000000000069218 
101009047665PLANTERAS      FLORO JR.      G 120062501500000000000066482 
101009047665PLANTERAS      FLORO JR.      G S18050701250000000000057682 
103332658774RAMOS          MARIA VERONICA D 120070901600000000000070914 
103361161180REGENCIA       LEA            L 120062501500000000000066482 
103361161180REGENCIA       LEA            L S19092402900000000000133820 
100613728180RETANA         FLORANTE       L S20062204000000000000184580 
103379846060REYES          ABBA           R S20111902700000000000124592 
103352816868REYES          VINCENT CONRAD M 120062601700000000000075344 
103368163576ROSELADA       ROMEL          D 120062001500000000000066482 
103368163576ROSELADA       ROMEL          D S19100703000000000000138436 
103352216251RUBINA         MARIA LALAINE  T S20090203800000000000175352 
103396603273SANTOS         DANCEL         D 120090301400000000000062050 
103396603273SANTOS         DANCEL         D S12060506000000000000026250 
103415450747SEDILLO        JOEMEL         M 120090201400000000000062050 
100410668126SENDAYDIEGO    LALAINE        T 120071401400000000000062050 
103415942381STOHNER        ELISHIA MAY    N 120062301700000000000075344 
103415942381STOHNER        ELISHIA MAY    N S16083102177100000000200000 
103401905976SUPETRAN JR.   JOSE           T 120090901400000000000062050 
103401905976SUPETRAN JR.   JOSE           T S17042501350000000000120000 
103373884112SUPNAD         DEXTER         E S21031203600000000000166122 
103445411413TORRES         KESIE          R 120071601800000000000079778 
103445411413TORRES         KESIE          R S19041501500000000000069218 
103387861846VELOSO JR.     BENJAMIN       V S18120402900000000000133820 
103420290044VERACRUZ       JENNYLYN       Q 120071701700000000000075344 
103420290044VERACRUZ       JENNYLYN       Q S19073003200000000000147664 
103334724282VERGARA        MARITESS       V S20082703500000000000161508 
103354227565VILLANUEVA     ALMA           M 120062302000000000000088642 
103354227565VILLANUEVA     ALMA           M S19111103600000000000166122 
103350235302ZALDIVAR       LEAH           T 120072701400000000000062050 
103350235302ZALDIVAR       LEAH           T S19100702900000000000133820 
103318015823ZAUSA          NADY           R 120062602000000000000088642 
99011200000000001194235
