000391263394 Office Warehouse, Inc.     2109
103405392145ABADAM         EVANGELINE     F S19021902900000000000133820 
103394731215ACHARON        CINDY          B 120061801500000000000066482 
103394731215ACHARON        CINDY          B S16101801600000000000073832 
103427176941ADONAIS        MARVIN         N 120112701200000000000055374 
103427176941ADONAIS        MARVIN         N S20111802400000000000110748 
103422600276ANGUSTIA       MARY ROSE      B 120062401300000000000057618 
103422600276ANGUSTIA       MARY ROSE      B S19021102600000000000119978 
103437210651APINES         KRISHA ANNE    A 120070901800000000000079778 
103419377761ARANAS         LONELYN        C S21052602700000000000124592 
103378672138BALGAME        JANICE         L 120070402000000000000088642 
103340021212BALLESTEROS    JOEL           D S19012403200000000000147664 
103425500742BAUTISTA       CLOYD MORGAN   H S19031202600000000000078343 
103424615528BAYARONG       DARREN         . 120062501400000000000062050 
103410192026BOLANOS        RYAN           R S19040402900000000000133820 
103442908932BOYO           RAYMUND        A S19081301200000000000055374 
103456625612BRIONES        MARY GRACE     A 120071501700000000000075344 
103456625612BRIONES        MARY GRACE     A S20021001650000000000076140 
103390197808BULTRON        JOANNA         G S20062203000000000000138436 
103354060599CANDO JR.      EFREN          C 120062701900000000000084210 
100722564769CASUYON        APRIL          N S19090303000000000000138436 
103389791095CODILLA        KAREEN         L S20061702900000000000133820 
103449478740CONDRILLON     NICOMEDES JR.  S 120063001400000000000062050 
103424781708CRUZ           CHRISTIAN      S 120062101500000000000066482 
103424781708CRUZ           CHRISTIAN      S S20061603000000000000138436 
103316968493DE GUZMAN      ORLY           B S19062803300000000000152278 
103419526091DE OCAMPO      CHESTER JOHN   B S20112502600000000000119978 
103435739901DEL ROSARIO    REYNAN         B 120072201200000000000053184 
103435739901DEL ROSARIO    REYNAN         B S19102501350000000000062296 
103419787458DELA COSTA     ROMALYN        C S20110402700000000000124592 
100238070116DIAZ           ABBY           V S19070401500000000000069218 
103405206639DUGOS          CRISTELYN      L S20070302700000000000124592 
103389522057ESPADILLA      RANDY          C 120073002000000000000088642 
103332020519ESPINO         DIOSDADO       . S20110703800000000000087676 
103332020519ESPINO         DIOSDADO       . 120112701900000000000043838 
103402596397FABI           MAY            N S19090903000000000000138436 
100512134121FERRARIZ       KEN BRYAN      G 120090901400000000000062050 
100512134121FERRARIZ       KEN BRYAN      G S19051601350000000000062296 
103387738283FLORENOSOS     ROLAND         R S20121502500000000000115362 
103347227608GALDO          SHARON         B S21050302300000000000106134 
100507007784GALVE          CRUZCHEL       T S20060803900000000000179964 
103373963486GERON          FRANCIS        S S21062103300000000000076139 
103468407802GUTANA         CRISJERANDO    Z S21032401250000000000057682 
103453332762JARAPA         JANELLE LOISE  J 120070201400000000000031025 
103453332762JARAPA         JANELLE LOISE  J S19100901450000000000033455 
103425005739JARAPA         KRISTINE JOYCE B 120062501200000000000053186 
103390333471LAGAMO         ARMIE          O S20020303000000000000138436 
103385285330LARUSCAIN      STEPHEN JOHN   S S20062203100000000000143050 
103445931663LAUREANO       BERNADETH      D 120081601600000000000070914 
103445931663LAUREANO       BERNADETH      D S20081201550000000000071526 
103403481362LOPEZ          IVANHOE        E S20030203000000000000138436 
103392794267LORIENTE       MARY GRACE     N 121010501400000000000064604 
103392794267LORIENTE       MARY GRACE     N S20101202700000000000124592 
103361388507LUCAS          MARY JOY       A S20021903200000000000147664 
103459902167MANALO         RAYMART        S 120070801000000000000177284 
100628513597MANANGO        ARIEL          V 120072401300000000000057618 
100628513597MANANGO        ARIEL          V S20012002600000000000119978 
103431487118MARQUESES      CRISPIN        C S20100202800000000000129206 
100120195701MC GOWAN       RYAN           M S20081403047600000000138436 
103432114862MENDOZA        GILBERT        D S20031302900000000000133820 
103432114862MENDOZA        GILBERT        D 120072501500000000000066482 
103319784302MENDOZA        GIRLIE         P S19070903400000000000156894 
103375462846NACARIO        RONNIE         C 120080601700000000000075344 
103357341529NAVARRO        MARIA VICTORIA F 120091402000000000000088642 
103357341529NAVARRO        MARIA VICTORIA F S19071003300000000000152278 
103454358114NORONA         MARK JOSEPH    P S20091601400000000000064604 
103403162571OLIVA          JONAS          C 120090101500000000000066482 
103403162571OLIVA          JONAS          C S20012003000000000000138436 
103416627964OSITA          AILEN          S 120071501500000000000066482 
103416627964OSITA          AILEN          S S19092402900000000000133820 
103435835009PANCITO        ANABEL         D 120072701600000000000070914 
103435835009PANCITO        ANABEL         D S19041501550000000000071526 
103447382951PASCUAL        GENHIENA ANNE  D 120070201700000000000075344 
103322404271PENILLA        ARNOLD         G 121011201800000000000083062 
103322404271PENILLA        ARNOLD         G S20120403500000000000161508 
100221342518PENUS          MELODY         S S09062201612100000000400000 
103385426885PERMANO        JOSEPH         G S16120303200000000000147664 
103435851753PICULADOS      CALIXTO, JR.   B S18121301500000000000034585 
101009047665PLANTERAS      FLORO JR.      G S20111602800000000000129206 
103332658774RAMOS          MARIA VERONICA D S21060603000000000000138436 
103361161180REGENCIA       LEA            L 120062501500000000000066482 
103361161180REGENCIA       LEA            L S19092402900000000000133820 
103416318299REQUILLO       CRESENTE       P S19022002500000000000057681 
100613728180RETANA         FLORANTE       L S20062204000000000000184580 
103379846060REYES          ABBA           R S20111902700000000000124592 
103352816868REYES          VINCENT CONRAD M 120062601700000000000075344 
100218606432RIVERA         MARY GRACE     D 120081601900000000000084210 
100218606432RIVERA         MARY GRACE     D S20071503278000000000175352 
103368163576ROSELADA       ROMEL          D 120062001500000000000066482 
103368163576ROSELADA       ROMEL          D S19100703000000000000138436 
100419023539ROTONI         MARIA FE CARLA M S16021601900000000000043838 
103352216251RUBINA         MARIA LALAINE  T S20090203800000000000175352 
103396256468SANLITAN       PRINCESS       R 120080201500000000000033241 
103415450747SEDILLO        JOEMEL         M 120090201400000000000062050 
100410668126SENDAYDIEGO    LALAINE        T 120071401400000000000062050 
103401905976SUPETRAN JR.   JOSE           T 120090901400000000000062050 
103401905976SUPETRAN JR.   JOSE           T S17042507410000000000062296 
103373884112SUPNAD         DEXTER         E S21031203600000000000166122 
103379853383TONDO          MARICEL        D S18022403200000000000147664 
103445411413TORRES         KESIE          R 120071601800000000000079778 
103445411413TORRES         KESIE          R S19041501500000000000069218 
103359121802VALERIO        WILLIAM        V S21042903600000000000166122 
103334724282VERGARA        MARITESS       V S20082703500000000000161508 
103354227565VILLANUEVA     ALMA           M 120062302000000000000088642 
103354227565VILLANUEVA     ALMA           M S19111103600000000000166122 
100419231334WALES          JO-ANN         P S20101202900000000000133820 
103350235302ZALDIVAR       LEAH           T 120072701400000000000062050 
103350235302ZALDIVAR       LEAH           T S19100702900000000000133820 
103318015823ZAUSA          NADY           R 120062602000000000000088642 
99010800000000011192129
