000391263394 Office Warehouse, Inc.     1911
103405392145ABADAM         EVANGELINE     F S19021902900000000000133820 
100212033454ADIOVA         MICHAEL        N S18050703000000000000138436 
103427176941ADONAIS        MARVIN         N S17030601200000000000055374 
103355792248ALEJO          LOURDES        H S18022403200000000000147664 
103409588735ALEJO          RODERICK       M S19031103100000000000143050 
103338928204AUGUIS         FERDINAND      C S18032303200000000000147664 
103378672138BALGAME        JANICE         L S18082503200000000000147664 
103340021212BALLESTEROS    JOEL           D S19012403200000000000147664 
103428889729BASARTE        ALMA           P S19022101300000000000059988 
103425500742BAUTISTA       CLOYD MORGAN   H S19031202600000000000119978 
103424615528BAYARONG       DARREN         . S18111602700000000000124592 
103332410637BERNARDO       MARYLYN        C S17121103200000000000147664 
103410192026BOLANOS        RYAN           R S19041002900000000000133820 
103364254683BONAVENTE      ADRIAN         M S17100302800000000000129206 
103377609429BONIFACIO      ERIC           S S19012403200000000000147664 
103442908932BOYO           RAYMUND        A S19081401200000000000055374 
103448100530BUGNA JR       BIENVENIDO     E S18021601100000000000058000 
103390197808BULTRON        JOANNA         G S18101902700000000000124592 
103354060599CANDO JR.      EFREN          C S19081403400000000000156894 
103389791095CODILLA        KAREEN         L S19022602800000000000129206 
103424781708CRUZ           CHRISTIAN      S S18042002500000000000115362 
103316968493DE GUZMAN      ORLY           B S19062803300000000000152278 
103419526091DE OCAMPO      CHESTER JOHN   B S19011602700000000000124592 
103419787458DELA COSTA     ROMALYN        C S19031802800000000000129206 
100228035608DELA CRUZ      JOWARD         R S19050803000000000000069218 
100238070116DIAZ           ABBY           V S19070401500000000000069218 
100421218523EDOBALA        CELMAR         G S17101301100000000000050760 
103385372146ESPINAS        LEO            M S18050702600000000000119978 
103332020519ESPINO         DIOSDADO       . S19070503400000000000156894 
100512134121FERRARIZ       KEN BRYAN      G S19051601350000000000062296 
103387738283FLORENOSOS     ROLAND         R S19022102600000000000119978 
103413022834GALANG         ANNA CARMELLA  R S17110901400000000000064604 
100228962205GALLENDO       PERCIOUS       E S18073107642000000000053068 
103373963486GERON          FRANCIS        S S18012503100000000000143050 
103408401680GUEVARRA       JESUS SOFIO    Z S19020102700000000000124592 
103376532270IBO            MARIBETH       P S19082003400000000000168431 
103420655579LADEZA         EMMAR          M S18112103100000000000143050 
103390333471LAGAMO         ARMIE          O S17101002700000000000124592 
103426112773LALONGA        HASSAN-AR HASSIM S19051602900000000000133820 
103441787387LANTO          REY MARK       J S17110901301000000000070000 
103385285330LARUSCAIN      STEPHEN JOHN   S S18030502900000000000133820 
103378391309LATAG          JAYJAY         L S19021503100000000000143050 
103349173608LOPEZ          ENRIQUE        N S17100402900000000000133820 
103403481362LOPEZ          IVANHOE        E S18011703000000000000138436 
103392794267LORIENTE       MARY GRACE     N S19051602900000000000133820 
103361388507LUCAS          MARY JOY       A S17122703200000000000147664 
103390788712MACALOOD       AE-GHEAN       C S19071902800000000000129206 
103431487118MARQUESES      CRISPIN        C S18090801450000000000066910 
103363493555MARQUEZ        CHERRY LOU     T S17121103200000000000147664 
100120195701MC GOWAN       RYAN           M S18020701350000000000062296 
103319784302MENDOZA        GIRLIE         P S19070903400000000000156894 
103375462846NACARIO        RONNIE         C S19011803100000000000143050 
103353496902NAVARRO        DINO NINO      S S19041703200000000000147664 
103357341529NAVARRO        MARIA VICTORIA F S19071003300000000000152278 
103403162571OLIVA          JONAS          C S17111709500000000000043838 
103406356070ORIAS          ROSE ANN       B S19030602700000000000124592 
103429373276PADILLA        HAROLD         L S19051402800000000000129206 
103385426885PERMANO        JOSEPH         G 118090801600000000000073832 
103435851753PICULADOS      CALIXTO, JR.   B S18121301500000000000069218 
103423703965PILONEO        JESSICA        C S18081502500000000000115362 
103420290044QUERUBIN       JENNYLYN       B S19073003200000000000147664 
103400719192RAFAEL         RONALD         S S18112102500000000000115362 
103332658774RAMOS          MARIA VERONICA D S18100903000000000000138436 
103380190705RAMOS          RIONELL        G S18101003200000000000147664 
100613728180RETANA         FLORANTE       L S18061903200000000000147664 
103379846060REYES          ABBA           R S16101402500000000000115362 
103352216251RUBINA         MARIA LALAINE  T S17120103200000000000147664 
103433877166RUBIO          DINNA JOY      C S18091201350000000000124592 
103411682535SALES          VIRGILIO       M S18032202400000000000110748 
103396256468SANLITAN       PRINCESS       R S18012502700000000000124592 
103396603273SANTOS         DANCEL         D S12060506000000000000026250 
103373884112SUPNAD         DEXTER         E S19013103200000000000147664 
103379853383TONDO          MARICEL        D S18022403200000000000147664 
103445411413TORRES         KESIE          R S19041601500000000000069218 
103401013156TORRES         RENALYN        A S19020202800000000000129206 
103353547330VALLE          ROBERTO        B S18060202700000000000124590 
103387861846VELOSO JR.     BENJAMIN       V S18120402900000000000133820 
103370439450VICIO          MARY JANE      M S18090503200000000000147664 
100419231334WALES          JO-ANN         P S18052202500000000000115362 
103350235302ZALDIVAR       LEAH           T S17082902600000000000119978 
103318015823ZAUSA          NADY           R S18092003200000000000147610 
99008100000000009664695
