000391263394 Office Warehouse, Inc.     2304
103405392145ABADAM         EVANGELINE     F S22021602800000000000129206 
103394731215ACHARON        CINDY          B S22093002900000000000133820 
100212033454ADIOVA         MICHAEL        N S21050502700000000000124592 
103427176941ADONAIS        MARVIN         N 120112701200000000000055374 
103448395675ALIVIO         BLADEMER       L 123012501700000000000078446 
103448395675ALIVIO         BLADEMER       L S21042801200000000000055374 
103473635261ALTOVEROS      MARY JOY       M S21111501500000000000069218 
103419377761ARANAS         LONELYN        C S22072703200000000000147664 
103338928204AUGUIS         FERDINAND      C S22072702300000000000106134 
103378672138BALGAME        JANICE         L S21091603600000000000166122 
103425500742BAUTISTA       CLOYD MORGAN   H S21101902500000000000115362 
103410192026BOLANOS        RYAN           R S21102002300000000000106134 
103456625612BRIONES        MARY GRACE     A S22042101550000000000071526 
103448100530BUGNA JR       BIENVENIDO     E S21102602100000000000096904 
103390197808BULTRON        JOANNA         G S21100102600000000000119978 
103416742687CALVO          MELCA          S S22031002400000000000110748 
103425409089CARRIDO        ALLAN          R S22062202800000000000129206 
100722564769CASUYON        APRIL          N 123011101600000000000036916 
100722564769CASUYON        APRIL          N S22040102900000000000133820 
103400759204CORPUZ         JOHN OLIVER    D S23010901350000000000062296 
103474335793CRISTOBAL      ANGELICA       I S21071501300000000000059988 
103419526091DE OCAMPO      CHESTER JOHN   B S22011702800000000000129206 
103419787458DELA COSTA     ROMALYN        C S22022302800000000000129206 
103435527197DIAZ           KEVIN          B S22030402575000000000120000 
103480345890DOMINGO        MARK DANIEL    L S22060601200000000000055374 
103452740083DU             SHERRY MAE     O S22070108003000000000046146 
103405206639DUGOS          CRISTELYN      L S22100302700000000000124592 
103363072277DY             ELMER          S S09092201300000000000100000 
103332020519ESPINO         DIOSDADO       . 120112701900000000000087676 
103332020519ESPINO         DIOSDADO       . S20110703800000000000175352 
103387738283FLORENOSOS     ROLAND         R S22102402700000000000124592 
103347227608GALDO          SHARON         B S21050302300000000000106134 
103349186006GALENDEZ       AMOR           P S22032803600000000000166122 
100507007784GALVE          CRUZCHEL       T S22072603900000000000179966 
100236594568GEMENIANO      CARLITO        G S21072601550000000000071526 
103373963486GERON          FRANCIS        S S21062103300000000000152278 
103408401680GUEVARRA       JESUS SOFIO    Z S21080302700000000000124592 
103468407802GUTANA         CRISJERANDO    Z S21032401250000000000057682 
103376532270IBO            MARIBETH       P S22062803500000000000161508 
103440772131ILAO           RENAFE JOY     G S22042002500000000000115362 
103420655579LADEZA         EMMAR          M S22010302800000000000129206 
103390333471LAGAMO         ARMIE          O S22021503000000000000138436 
103441787387LANTO          REY MARK       J S21082902300000000000106134 
103445931663LAUREANO       BERNADETH      D 120081601600000000000070914 
103445931663LAUREANO       BERNADETH      D S20081201550000000000071526 
103392794267LORIENTE       MARY GRACE     N 121010501400000000000064604 
103392794267LORIENTE       MARY GRACE     N S21120202800000000000129206 
103361388507LUCAS          MARY JOY       A S21112403200000000000147664 
100396354240MALCO          JOCELYN        S S22060903800000000000175352 
103459902167MANALO         RAYMART        S S22060301350000000000062296 
100628513597MANANGO        ARIEL          V 120072401300000000000057618 
100628513597MANANGO        ARIEL          V S20012002600000000000119978 
103473332221MASANGYA       LEINARD        G S22041801450000000000066910 
100120195701MC GOWAN       RYAN           M S20081403047600000000138436 
103432114862MENDOZA        GILBERT        D S22050302900000000000133820 
103358645826MOLDON         ELIZABETH      P S21042302700000000000124592 
103319523644MORAL          ALLAN          W S14021702938100000000138436 
103375462846NACARIO        RONNIE         C S21101903000000000000138436 
103353496902NAVARRO        DINO NINO      S S21081304000000000000092300 
103357341529NAVARRO        MARIA VICTORIA F S22081203700000000000170736 
103454358114NORONA         MARK JOSEPH    P S22032201250000000000057682 
100240358127PAGADUAN       LANIER         P S21020502900000000000058000 
103322404271PENILLA        ARNOLD         G 121011201800000000000083062 
103322404271PENILLA        ARNOLD         G S20120403500000000000161508 
103385426885PERMANO        JOSEPH         G S21110503800000000000087676 
103435851753PICULADOS      CALIXTO, JR.   B S22090202100000000000096904 
101009047665PLANTERAS      FLORO JR.      G S22021002800000000000129206 
103380942665QUILANG        KARENJANE      M S23012503100000000000143049 
103332658774RAMOS          MARIA VERONICA D S22092803700000000000170736 
103380190705RAMOS          RIONELL        G S20101203800000000000087676 
103416318299REQUILLO       CRESENTE       P S19022002500000000000115362 
100613728180RETANA         FLORANTE       L S22071103800000000000175352 
100218606432RIVERA         MARY GRACE     D 120081601900000000000084210 
103368163576ROSELADA       ROMEL          D S2201090260000000000-119978 
103403971102SANGALANG      JACK ROMAN     T S22091202700000000000124592 
103396256468SANLITAN       PRINCESS       R 120080201500000000000066482 
103396603273SANTOS         DANCEL         D S21072202600000000000119978 
103401905976SUPETRAN JR.   JOSE           T S22011402800000000000129206 
103373884112SUPNAD         DEXTER         E S22120603900000000000179966 
103359121802VALERIO        WILLIAM        V S21042903600000000000166122 
99008000000000008969489
