000391263394 Office Warehouse, Inc.     2102
103405392145ABADAM         EVANGELINE     F S19021902900000000000133820 
103394731215ACHARON        CINDY          B 120062301500000000000066482 
103409588735ALEJO          RODERICK       M S19031103100000000000143050 
103437210651APINES         KRISHA ANNE    A 120070901800000000000079778 
103419377761ARANAS         LONELYN        C 120062501900000000000084210 
103338928204AUGUIS         FERDINAND      C 120070601900000000000084210 
103338928204AUGUIS         FERDINAND      C S20062503700000000000170736 
103378672138BALGAME        JANICE         L 120070402000000000000088642 
103428889729BASARTE        ALMA           P S19022101300000000000059988 
103425500742BAUTISTA       CLOYD MORGAN   H S19031202600000000000119978 
103424615528BAYARONG       DARREN         . 120070101400000000000062050 
103424615528BAYARONG       DARREN         . S18111602700000000000124592 
103410192026BOLANOS        RYAN           R S19041002900000000000133820 
103377609429BONIFACIO      ERIC           S S19012403200000000000147664 
103442908932BOYO           RAYMUND        A 120062501600000000000070914 
103442908932BOYO           RAYMUND        A S19081401200000000000055374 
103456625612BRIONES        MARY GRACE     A 120071501700000000000075344 
103456625612BRIONES        MARY GRACE     A S20021001650000000000076140 
103327355244BRISTOL JR.    TOMAS          B S20021003800000000000175352 
103390197808BULTRON        JOANNA         G S20062503000000000000138436 
103354060599CANDO JR.      EFREN          C 120070401900000000000084210 
103354060599CANDO JR.      EFREN          C S19081403400000000000156894 
100722564769CASUYON        APRIL          N S19090403000000000000069218 
103389791095CODILLA        KAREEN         L S20061702900000000000133820 
103449478740CONDRILLON     NICOMEDES JR.  S 120063001400000000000062050 
103424781708CRUZ           CHRISTIAN      S 120062501500000000000066482 
103424781708CRUZ           CHRISTIAN      S S20061603000000000000138436 
103442145423DACILLO        JAYSON         B 120070301400000000000062050 
103442145423DACILLO        JAYSON         B S19090201350000000000062296 
103316968493DE GUZMAN      ORLY           B S19062803300000000000152278 
103419526091DE OCAMPO      CHESTER JOHN   B S19011602700000000000124592 
103435739901DEL ROSARIO    REYNAN         B S19102501350000000000062296 
103419787458DELA COSTA     ROMALYN        C 120061701500000000000066482 
100238070116DIAZ           ABBY           V S19070401500000000000069218 
103405206639DUGOS          CRISTELYN      L S20071102700000000000124592 
100421218523EDOBALA        CELMAR         G 120090301400000000000062050 
103389522057ESPADILLA      RANDY          C 120073002000000000000088642 
103385372146ESPINAS        LEO            M S19123103000000000000138436 
103402596397FABI           MAY            N S19090903000000000000138436 
100512134121FERRARIZ       KEN BRYAN      G S19051601350000000000062296 
103387738283FLORENOSOS     ROLAND         R S19022102600000000000119978 
103413022834GALANG         ANNA CARMELLA  R 120070101400000000000062050 
100228962205GALLENDO       PERCIOUS       E 120081601400000000000062050 
100228962205GALLENDO       PERCIOUS       E S18073107642000000000053068 
100507007784GALVE          CRUZCHEL       T S20060803900000000000179964 
103408401680GUEVARRA       JESUS SOFIO    Z S19020102700000000000124592 
103376532270IBO            MARIBETH       P 120071702000000000000088642 
103376532270IBO            MARIBETH       P S19082003400000000000156894 
103453332762JARAPA         JANELLE LOISE  J 120120101400000000000062050 
103453332762JARAPA         JANELLE LOISE  J S19100901450000000000066910 
103425005739JARAPA         KRISTINE JOYCE B 120070101200000000000053186 
103420655579LADEZA         EMMAR          M S18112103100000000000143050 
103390333471LAGAMO         ARMIE          O S20020303000000000000138436 
103426112773LALONGA        HASSAN-AR HASSIM S19051602900000000000066910 
103441787387LANTO          REY MARK       J S17110901301000000000070000 
103378391309LATAG          JAYJAY         L S19021503100000000000143050 
103349173608LOPEZ          ENRIQUE        N S19090902900000000000133820 
103403481362LOPEZ          IVANHOE        E S20030203000000000000138436 
103392794267LORIENTE       MARY GRACE     N S19051602900000000000133820 
103361388507LUCAS          MARY JOY       A S20021903200000000000147664 
103431487118MARQUESES      CRISPIN        C S20112502800000000000129206 
103363493555MARQUEZ        CHERRY LOU     T S20032104000000000000184590 
103432114862MENDOZA        GILBERT        D 120072501500000000000066482 
103432114862MENDOZA        GILBERT        D S20031302900000000000133820 
103319784302MENDOZA        GIRLIE         P S19070903400000000000156894 
103439408063MORTIZ         MANNY          U S18071909316000000000100000 
103375462846NACARIO        RONNIE         C 120080601700000000000075344 
103375462846NACARIO        RONNIE         C S19011803100000000000143050 
103415942381NAPICOL        ELISHIA MAY    D 120062301700000000000075344 
103415942381NAPICOL        ELISHIA MAY    D S16083102177100000000200000 
103353496902NAVARRO        DINO NINO      S S19041703200000000000147664 
103357341529NAVARRO        MARIA VICTORIA F S19071003300000000000152278 
103454358114NORONA         MARK JOSEPH    P S20091601400000000000064604 
103403162571OLIVA          JONAS          C 120090101500000000000066482 
103403162571OLIVA          JONAS          C S20012003000000000000138436 
103406356070ORIAS          ROSE ANN       B 120062501400000000000062050 
103406356070ORIAS          ROSE ANN       B S19030602700000000000124592 
103416627964OSITA          AILEN          S 120071601500000000000066482 
103416627964OSITA          AILEN          S S19092402900000000000133820 
103435835009PANCITO        ANABEL         D 120072701600000000000070914 
103435835009PANCITO        ANABEL         D S19041601550000000000071526 
103447382951PASCUAL        GENHIENA ANNE  D 120070201700000000000075344 
103322404271PENILLA        ARNOLD         G S20120403500000000000161508 
103385426885PERMANO        JOSEPH         G 118090801600000000000073832 
103385426885PERMANO        JOSEPH         G S16120303200000000000147664 
103435851753PICULADOS      CALIXTO, JR.   B S18121301500000000000069218 
103423703965PILONEO        JESSICA        C 120062501400000000000062050 
101009047665PLANTERAS      FLORO JR.      G 120062501500000000000066482 
101009047665PLANTERAS      FLORO JR.      G S18050701250000000000057682 
103420290044QUERUBIN       JENNYLYN       B 120071701700000000000075344 
103420290044QUERUBIN       JENNYLYN       B S19073003200000000000147664 
103400719192RAFAEL         RONALD         S S18112102500000000000115362 
103332658774RAMOS          MARIA VERONICA D 120070901600000000000070914 
103332658774RAMOS          MARIA VERONICA D S18100903000000000000138436 
103361161180REGENCIA       LEA            L 120070101500000000000066481 
103361161180REGENCIA       LEA            L S19092402900000000000133820 
100613728180RETANA         FLORANTE       L S20062504000000000000184580 
103379846060REYES          ABBA           R 120070301600000000000035457 
103379846060REYES          ABBA           R S20111902700000000000124592 
103352816868REYES          VINCENT CONRAD M 120070301700000000000075344 
103368163576ROSELADA       ROMEL          D 120062501500000000000066482 
103368163576ROSELADA       ROMEL          D S19100703000000000000138436 
103352216251RUBINA         MARIA LALAINE  T 120062502000000000000044321 
103352216251RUBINA         MARIA LALAINE  T S20090203800000000000175352 
103396603273SANTOS         DANCEL         D 120090301400000000000062050 
103396603273SANTOS         DANCEL         D S12060506000000000000026250 
103415450747SEDILLO        JOEMEL         M 120090201400000000000062050 
100410668126SENDAYDIEGO    LALAINE        T 120071401400000000000062050 
103401905976SUPETRAN JR.   JOSE           T S17042501350000000000120000 
103373884112SUPNAD         DEXTER         E S19013103200000000000147664 
103445411413TORRES         KESIE          R S19041601500000000000069218 
103445411413TORRES         KESIE          R 120071601800000000000079778 
103387861846VELOSO JR.     BENJAMIN       V S18120402900000000000133820 
103334724282VERGARA        MARITESS       V S20082703500000000000323014 
103354227565VILLANUEVA     ALMA           M 120062502000000000000088642 
103354227565VILLANUEVA     ALMA           M S19111203600000000000166122 
103350235302ZALDIVAR       LEAH           T S19100702900000000000133820 
103318015823ZAUSA          NADY           R 120070302000000000000088642 
103318015823ZAUSA          NADY           R S18092003200000000000147610 
99011900000000012540597
