000391263394 Office Warehouse, Inc.     1603
103386227436ALIMODIAN      KRISTINE       B S15012002500000000000115362 
100398883023ALMAQUER       EUGENIO        T S15051202700000000000124592 
103401013156AMPARADO       RENALYN        G S15102301200000000000055374 
100397457544ANTONIO        GARNER         D S15112403100000000000143050 
103340021212BALLESTEROS    JOEL           D S15022503000000000000138436 
103410192026BOLANOS        RYAN           R S15112309500000000000043838 
103364254683BONAVENTE      ADRIAN         M S15021702300000000000106134 
103377609429BONIFACIO      ERIC           S S15060403100000000000143050 
103390197808BULTRON        JOANNA         G S15081202200000000000101520 
103375204473CAJANDOC       ALMA           O S15052801150000000000053068 
103354060599CANDO JR.      EFREN          C S15091003100000000000143050 
103389791095CODILLA        KAREEN         L S15030901000000000000046146 
103316968493DE GUZMAN      ORLY           B S15112403100000000000143050 
103388948153DIZON          ROCHELLE       D S13100704500000000000020766 
103389522057ESPADILLA      RANDY          C S11020101900000000000105000 
103385372146ESPINAS        LEO            M S13073101000000000000046146 
103332020519ESPINO         DIOSDADO       . S15032703000000000000138436 
103387738283FLORENOSOS     ROLAND         R S10082408000000000000035000 
103368386298FONTILLAS      ELOISA         L S14032501300000000000059988 
103347227608GALDO          SHARON         B S15012001000000000000048452 
103373963486GERON          FRANCIS        S S06122801000000000000043750 
103408401680GUEVARRA       JESUS          S S15020902400000000000110748 
103376532270IBO            MARIBETH       P S15120503200000000000073832 
103382326991JAMITO         MARY JANE      B S15022501150000000000053068 
103389361496LACASANDILE    MELANIE        L S15111602500000000000057681 
103390333471LAGAMO         ARMIE          O S15070802500000000000115362 
103326112773LALONGA        HASSAN-AR HASSIM S15110401200000000000055374 
103385285330LARUSCAIN      STEPHEN JOHN   S S15060502400000000000110748 
103349173608LOPEZ          ENRIQUE        N S15012002300000000000106134 
103403481362LOPEZ          IVANHOE        E S15110301050000000000048452 
103407470861LORESCO        ELMER          M S15032701150000000000053068 
103392794267LORIENTE       MARY GRACE     N S12092705500000000000024062 
100725635242MAMAR          MAE            M S15091101150000000000053068 
103431487118MARQUESES      CRISPIN        C S15110501200000000000055374 
103363493555MARQUEZ        CHERRY LOU     T S15102903100000000000143050 
103358645826MOLDON         ELIZABETH      P S15102802500000000000115362 
103375462846NACARIO        RONNIE         C S15102901150000000000053068 
103353496902NAVARRO        DINO NINO      S S15061703200000000000073832 
103357341529NAVARRO        MARIA VICTORIA F S15042903100000000000143050 
103381041455PARANE         JERALDINE      N S15072803000000000000069218 
103420290044QUERUBIN       JENNYLYN       B S14122001107500000000046146 
103380190705RAMOS          RIONELL        G S15102103100000000000143050 
103361161180REGENCIA       LEA            L S15061602300000000000106134 
100725548915REGONIEL       WENELYN        C S15091101100000000000050760 
100613728180RETANA         FLORANTE       L S15012003000000000000130306 
103379846060REYES          ABBA           R S14122008306000000000034610 
103352816868REYES          VINCENT CONRAD M S15012002400000000000052500 
100218606432RIVERA         MARY GRACE     D S15051902300000000000212266 
103368163576ROSELADA       ROMEL          D S15051102300000000000106134 
103396256468SANLITAN       PRINCESS       R S15031901050000000000048452 
103401905976SUPETRAN JR.   JOSE           T S15042101050000000000048452 
103373884112SUPNAD         DEXTER         E S15051503100000000000143050 
103393114888TECLING        MA. IRMA       V S15091502500000000000115362 
103418713928VALENCIA       ROSALINDA      I S15070901150000000000053068 
103359121802VALERIO        WILLIAM        V S15061603100000000000143050 
103387861846VELOSO JR.     BENJAMIN       V S15012008500000000000041530 
100718089779VOLUNTATE      ANALIE         C S14041405500000000000050760 
103350235302ZALDIVAR       LEAH           T S14022602200000000000101520 
99005800000000004995909
